:040000000200313297
:03000B000200BF31
:0100130032BA
:03001B000200C917
:030023000200D305
:03002B000200FFD1
:10008A00C2047541F4754201754300752100752358
:10009A0000752400752564752632E4F527F5287560
:1000AA002980752A96752B98F52CF544C201C2024F
:0500BA00C20302002E4C
:03002E000204CEFB
:1000BF00C0E0E53004F530D0E032C0E0E53404F5BF
:1000CF0034D0E032C0E0C001C0D075D0001098022B
:1000DF008000109902801220000DE5212408F98775
:1000EF0099C2B2D2008002D2B2D0D0D001D0E032C9
:1000FF00C0E0C082C083C0D0C2CFC2000521E521BD
:10010F0024F85003752100E52190092593F599D521
:10011F002309852523E52460021524D0D0D083D070
:10012F0082D0E032AE82AF837D07ED2408F98E8254
:10013F008F83E493FCA3AE82AF83A7048D041DECE1
:10014F0070E82285823D85833E85F03FF5407B0038
:10015F00E53D453E453F45407003EB706775450AE9
:10016F00E4F546F547F548853D82853E83853FF0AA
:10017F00E540C0031205C4AA82AD83D003EA24155B
:10018F00F582ED3409F583E493FFBB03028003BBD3
:10019F0006035307FEEB2410F8A60775450AE4F58E
:1001AF0046F547F548853D82853E83853FF0E5401E
:1001BF00C00312064785823D85833E85F03FF5409B
:1001CF00D0038006EB2410F876FF0BBB080050031A
:1001DF0002015FE53D453E453F454060697F00EFC9
:1001EF002410F98F06EE042410F88606A7060FBF19
:1001FF00070040EB75450AE4F546F547F548853DA0
:10020F0082853E83853FF0E5401205C4AC82AD8305
:10021F00EC2415F582ED3409F583E493FF7817A6E6
:10022F000775450AE4F546F547F548853D82853E55
:10023F0083853FF0E54012064785823D85833E85E5
:10024F00F03FF540808D30020A7810860774FE5F0C
:10025F007810F67F00EF2408F9EF2410F88606A730
:10026F00060FBF080040EE2285802D858A2E858CD3
:10027F002F852D82852E83852FF0E53022E5394598
:10028F003A453B453C7007900000E4F5F022A83555
:10029F00A936AA37AB387C007D007E007F00852908
:1002AF0045852A46852B47852C488F498F4A8F4B8A
:1002BF008F4C888289838AF0EB1206AC8582458544
:1002CF00834685F047F5488C498D4A8E4B8F4C906D
:1002DF00000AE4F5F0FCFDFEFF1206ACA882A9832C
:1002EF00AAF0FB853945853A46853B47853C4875DD
:1002FF004900754A00754B00754C00888289838AC6
:10030F00F0EB12080EA882A983AAF0FB740528F857
:10031F00E439F9E43AFAE43BFBE43CFCE43DFDE468
:10032F003EFEE43FFF75450AE4F546F547F548F50F
:10033F0049F54AF54BF54C888289838AF0EB020820
:10034F000EC2B6C28CC28E85802D858A2E858C2FCB
:10035F00852D35852E36852F3785303875300085BC
:10036F00A031858B32858D3385313985323A85338E
:10037F003B85343C753400D2B7758B00758D007595
:10038F008A00758C00C201C2B7D28CD28ED2B6222F
:10039F007F007E002090027E012091027E02EE609F
:1003AF00248E43E52660021526E5414542600B1574
:1003BF004174FFB541021542801F20041CD2047402
:1003CF00022EFF8014E5267005200402AF43752628
:1003DF00327541F4754201C2048F822212039FAF1E
:1003EF0082BF01028012BF0202804EBF03030204CC
:1003FF008ABF04030204AC22E4B54402800F7401E7
:10040F00B54402801E7402B54402801A2275256419
:10041F0090094D1201331203507524107527E8759A
:10042F00280322B2B6220529E4B5290C052AB52ADC
:10043F0007052BB52B02052C22E4B54402800F745F
:10044F0001B54402801E7402B54402801A2275253C
:10045F000A9009451201331203507524107527E8CD
:10046F0075280322020350152974FFB5290C152A8C
:10047F00B52A07152BB52B02152C22E544600B75F9
:10048F00440090093D1201338009754401900935EC
:10049F001201331203507527E875280322E54460D3
:1004AF000B75440090093D12013380097544029089
:1004BF0009551201331203507527E875280322D20C
:1004CF00B9D2BBD2BD759800C29CD2ACC2B6D2B75E
:1004DF00758955C28CC28ED2A9D2AB758C00758A24
:1004EF0000758D00758B0075CBFC75CABE75C80085
:1004FF0075C900D2CAD2ADD2AF90092D1201337592
:10050F0027E87528034387011203EBE52745286089
:10051F000B152774FFB52702152880E9E4B54402AF
:10052F00800E7401B54402802F7402B544D7803712
:10053F0020B30330B604E5247015E524B40100920E
:10054F000212035012028C12015275241080B674DD
:10055F0005B524B1C2B680AD1202771201527527CC
:10056F003275280002051420B30330B604E5247059
:10057F0035B20212035012028CAC82AD83AEF0FF83
:10058F008C008D018E028F03EC4D4E4F7008A82901
:10059F00A92AAA2BAB2C888289838AF0EB120152ED
:1005AF007524100205147405B52402800302051486
:0505BF00C2B6020514A4
:10091500039F250D9949411F010911C16385617126
:100925000102040810204080638955C55521F5FF53
:1009350063C5C7D5E121F5FF71F52119FFFFFFFF5C
:100945004311E161FF029F4B4311E161FF9E034BA0
:0809550071DFD521E1C7D521B6
:1005C400F9E54545464547454860777800C308E561
:1005D4004820E73BE54525E0F545E54633F546E5A6
:1005E4004733F547E54833F548E5829545E5839576
:1005F40046E5F09547E9954850D4C3E54813F548D6
:10060400E54713F547E54613F546E54513F545E596
:10061400829545FCE5839546FDE5F09547FEE99511
:10062400484007F98EF08D838C82C3E54813F54862
:10063400E54713F547E54613F546E54513F545D873
:10064400CEE922FB7A20E4FCFDFEFFE5822582F55B
:1006540082E58333F583E5F033F5F0EB33FB4017A4
:10066400DAE98042E5822582F582E58333F583E584
:10067400F033F5F0EB33FBEC33FCED33FDEE33FEFE
:10068400EF33FFEC9545ED9546EE9547EF954840E1
:1006940013EC9545FCED9546FDEE9547FEEF954828
:0806A400FF438201DABEEB22E4
:06006000E478FFF6D8FD74
:10003E007900E94400601B7A0090095D780175A093
:10004E0000E493F2A308B8000205A0D9F4DAF27521
:02005E00A0FF01
:1006AC0085824D85834E85F04FF5508C518D528E41
:1006BC00538F54E4F555F556F557F558F559F55A49
:1006CC00F55BF55CF55DE55DC40354F8FE8EF00555
:1006DC00F0A84DA94EAA4FAB50AC51AD52AE53E55C
:1006EC0054FF3392D2801AA2D2EF13FFEE13FEED19
:1006FC0013FDEC13FCEB13FBEA13FAE913F9E81303
:10070C00F8D5F0E3885F755E00AD5D7E00AB5E7C76
:10071C0000EB2DFDEC3EFEC3ED9408EE648094805E
:10072C0040030207EFE55EC40354F8FE8EF005F0BB
:10073C00A845A946AA47AB48AC49AD4AAE4BE54CD7
:10074C00FF3392D2801AA2D2EF13FFEE13FEED13F9
:10075C00FDEC13FCEB13FBEA13FAE913F9E813F8BD
:10076C00D5F0E3855FF0E8A4F8AFF088608F61E422
:10077C00F562F563F564F565F566F567E55E255D8F
:10078C00C40354F8FF8FF005F0A860A961AA62AB0E
:10079C0063AC64AD65AE66AF678018E828F8E933E2
:1007AC00F9EA33FAEB33FBEC33FCED33FDEE33FEBD
:1007BC00EF33FFD5F0E5E82555F555E93556F556F7
:1007CC00EA3557F557EB3558F558EC3559F559EDE1
:1007DC00355AF55AEE355BF55BEF355CF55C055E2D
:1007EC00020715055D74F8255D40030206D2855598
:1007FC00828556838557F0E558AC59AD5AAE5BAF40
:10080C005C2285824D85834E85F04FF5508C518D41
:10081C00528E538F54E4F555F556F557F558F55956
:10082C00F55AF55BF55C755D40E554235401F55EB6
:10083C00E54D254DF54DE54E33F54EE54F33F54F72
:10084C00E55033F550E55133F551E55233F552E5AA
:10085C005333F553E55433F554E5552555F555E526
:10086C005633F556E55733F557E55833F558E559F2
:10087C0033F559E55A33F55AE55B33F55BE55C33F3
:10088C00F55CE55E6006435501435900C3E555959B
:10089C0045E5569546E5579547E5589548E55995EC
:1008AC0049E55A954AE55B954BE55C954C4037E537
:1008BC0055C39545F555E5569546F556E557954777
:1008CC00F557E5589548F558E5599549F559E55AC0
:1008DC00954AF55AE55B954BF55BE55C954CF55CFB
:1008EC00434D01435100E55D14FF8F5D6003020829
:1008FC0035854D82854E83854FF0E550AC51AD5218
:05090C00AE53AF5422C0
:100066007800E84400600A790175A000E4F309D835
:10007600FC7800E84400600C7900900001E4F0A3ED
:04008600D8FCD9FACF
:0D003100758167120911E582600302002E3F
:0409110075820022C9
:00000001FF
