:040000000200313297
:03000B000200BF31
:0100130032BA
:03001B000200C917
:030023000200D305
:03002B000200FFD1
:20008A00C2047542F4754301754400752200752400752500752664752732E4F528F5297548
:1500AA002A80752B96752C98F52DF545C201C202C20302002E50
:03002E000203CFFB
:2000BF00C0E0E53104F531D0E032C0E0E53504F535D0E032C0E0C001C0D075D000109802B5
:2000DF008000109902801220000DE5212408F98799C2B2D2008002D2B2D0D0D001D0E0322D
:2000FF00C0E0C082C083C0D0C2CFC2000521E52124F85003752100E5219007EF93F599D526
:20011F002409852624E52560021525D0D0D083D082D0E032AD82AE83AFF07C07EC2408F964
:20013F008D828E838FF01207BFFBA3AD82AE83A7038C031CEB70E52285823E85833F85F073
:20015F0040F5417B00E53E453F454045417003EB706775460AE4F547F548F549853E82857E
:20017F003F838540F0E541C003120472AA82AD83D003EA24DFF582ED3407F583E493FFBB14
:20019F0003028003BB06035307FEEB2410F8A60775460AE4F547F548F549853E82853F83EC
:2001BF008540F0E541C0031204F585823E85833F85F040F541D0038006EB2410F876FF0B10
:2001DF00BB08005003020164E53E453F454045416002D20130010A7817860774FE5F7817E5
:2001FF00F630020A7810860774FE5F7810F67F00EF2408F9EF2410F88606A7060FBF08008D
:20021F0040EE2285802E858A2F858C30852E82852F838530F0E53122E53A453B453C453DD2
:20023F007007900000E4F5F022A836A937AA38AB397C007D007E007F00852A46852B4785C2
:20025F002C48852D498F4A8F4B8F4C8F4D888289838AF0EB12055AA882A983AAF0FB853A10
:20027F0046853B47853C48853D49754A00754B00754C00754D00888289838AF0EB0206BCBD
:20029F00C2B6C28CC28E85802E858A2F858C30852E36852F3785303885313975310085A0FC
:2002BF0032858B33858D3485323A85333B85343C85353D753500D2B7758B00758D00758A60
:2002DF0000758C00C201C2B7D28CD28ED2B6227F007E002090027E012091027E02EE602487
:2002FF008E44E52760021527E5424543600B154274FFB542021543801F20041CD204740203
:20031F002EFF8014E5277005200402AF447527327542F4754301C2048F82221202EEAF8205
:20033F00BF01028010BF02028035BF03028059BF0402805422E4B5450280087401B54502A3
:20035F00801A2275266490081775F08012013312029F7525107528E875290322B2B622E4D6
:20037F00B5450280077401B54545801975260A90080F75F08012013312029F75251075281D
:20039F00E87529032202029FE545600E75450090080775F080120133800C7545019007FFF7
:2003BF0075F08012013312029F7528E875290322D2B9D2BBD2BD759800C29CD2ACC2B6D21E
:2003DF00B7758955C28CC28ED2A9D2AB758C00758A00758D00758B0075CBFD75CABE75C8E5
:2003FF000075C900D2CAD2ADD2AF9007F775F0801201337528E875290343870112033AE526
:20041F00284529600B152874FFB52802152980E9E4B5450280077401B545DE802820B30354
:20043F0030B604E5257015E525B40100920212029F12023712015775251080BD7405B5252F
:13045F00B8C2B680B412022212015775283275290080A6F3
:2007DF00039F250D9949411F010911C1638561710102040810204080638955C55521F5FFDF
:2007FF0063C5C7D5E121F5FF71F52119FFFFFFFF4311E161FF029F4B4311E161FF9E034B82
:20047200F9E54645474548454960777800C308E54920E73BE54625E0F546E54733F547E52A
:200492004833F548E54933F549E5829546E5839547E5F09548E9954950D4C3E54913F5498E
:2004B200E54813F548E54713F547E54613F546E5829546FCE5839547FDE5F09548FEE9950C
:2004D200494007F98EF08D838C82C3E54913F549E54813F548E54713F547E54613F546D85A
:0304F200CEE9222E
:2004F500FB7A20E4FCFDFEFFE5822582F582E58333F583E5F033F5F0EB33FB4017DAE98040
:2005150042E5822582F582E58333F583E5F033F5F0EB33FBEC33FCED33FDEE33FEEF33FF6E
:20053500EC9546ED9547EE9548EF95494013EC9546FCED9547FDEE9548FEEF9549FF438248
:0505550001DABEEB22FB
:06006000E478FFF6D8FD74
:20003E007900E94400601B7A0090081F780175A000E493F2A308B8000205A0D9F4DAF27541
:02005E00A0FF01
:20055A0085824E85834F85F050F5518C528D538E548F55E4F556F557F558F559F55AF55B91
:20057A00F55CF55DF55EE55EC40354F8FE8EF005F0A84EA94FAA50AB51AC52AD53AE54E5DB
:20059A0055FF3392D2801AA2D2EF13FFEE13FEED13FDEC13FCEB13FBEA13FAE913F9E81370
:2005BA00F8D5F0E38860755F00AD5E7E00AB5F7C00EB2DFDEC3EFEC3ED9408EE6480948047
:2005DA00400302069DE55FC40354F8FE8EF005F0A846A947AA48AB49AC4AAD4BAE4CE54D73
:2005FA00FF3392D2801AA2D2EF13FFEE13FEED13FDEC13FCEB13FBEA13FAE913F9E813F86D
:20061A00D5F0E38560F0E8A4F8AFF088618F62E4F563F564F565F566F567F568E55F255E7C
:20063A00C40354F8FF8FF005F0A861A962AA63AB64AC65AD66AE67AF688018E828F8E933DE
:20065A00F9EA33FAEB33FBEC33FCED33FDEE33FEEF33FFD5F0E5E82556F556E93557F557C6
:20067A00EA3558F558EB3559F559EC355AF55AED355BF55BEE355CF55CEF355DF55D055F37
:20069A000205C3055E74F8255E40030205808556828557838558F0E559AC5AAD5BAE5CAFCC
:0206BA005D22BF
:2006BC0085824E85834F85F050F5518C528D538E548F55E4F556F557F558F559F55AF55B2E
:2006DC00F55CF55D755E40E555235401F55FE54E254EF54EE54F33F54FE55033F550E551CB
:2006FC0033F551E55233F552E55333F553E55433F554E55533F555E5562556F556E5573325
:20071C00F557E55833F558E55933F559E55A33F55AE55B33F55BE55C33F55CE55D33F55DE5
:20073C00E55F6006435601435A00C3E5569546E5579547E5589548E5599549E55A954AE592
:20075C005B954BE55C954CE55D954D4037E556C39546F556E5579547F557E5589548F55896
:20077C00E5599549F559E55A954AF55AE55B954BF55BE55C954CF55CE55D954DF55D434E9C
:20079C0001435200E55E14FF8F5E60030206E3854E82854F838550F0E551AC52AD53AE546F
:0307BC00AF552214
:200066007800E84400600A790175A000E4F309D8FC7800E84400600C7900900001E4F0A398
:04008600D8FCD9FACF
:0D0031007581681207DBE582600302002E76
:1C07BF0020F71430F6148883A88220F507E6A88375830022E280F7E49322E02249
:0407DB007582002201
:00000001FF
